{
  "contractName": "DecentralBank",
  "abi": [
    {
      "inputs": [
        {
          "internalType": "contract RWD",
          "name": "_rwd",
          "type": "address"
        },
        {
          "internalType": "contract Tether",
          "name": "_tether",
          "type": "address"
        },
        {
          "internalType": "contract Fenda",
          "name": "_fenda",
          "type": "address"
        }
      ],
      "payable": false,
      "stateMutability": "nonpayable",
      "type": "constructor"
    },
    {
      "constant": true,
      "inputs": [],
      "name": "fenda",
      "outputs": [
        {
          "internalType": "contract Fenda",
          "name": "",
          "type": "address"
        }
      ],
      "payable": false,
      "stateMutability": "view",
      "type": "function"
    },
    {
      "constant": true,
      "inputs": [
        {
          "internalType": "address",
          "name": "",
          "type": "address"
        }
      ],
      "name": "hasStacked",
      "outputs": [
        {
          "internalType": "bool",
          "name": "",
          "type": "bool"
        }
      ],
      "payable": false,
      "stateMutability": "view",
      "type": "function"
    },
    {
      "constant": true,
      "inputs": [
        {
          "internalType": "address",
          "name": "",
          "type": "address"
        }
      ],
      "name": "isStacking",
      "outputs": [
        {
          "internalType": "bool",
          "name": "",
          "type": "bool"
        }
      ],
      "payable": false,
      "stateMutability": "view",
      "type": "function"
    },
    {
      "constant": true,
      "inputs": [],
      "name": "name",
      "outputs": [
        {
          "internalType": "string",
          "name": "",
          "type": "string"
        }
      ],
      "payable": false,
      "stateMutability": "view",
      "type": "function"
    },
    {
      "constant": true,
      "inputs": [],
      "name": "owner",
      "outputs": [
        {
          "internalType": "address",
          "name": "",
          "type": "address"
        }
      ],
      "payable": false,
      "stateMutability": "view",
      "type": "function"
    },
    {
      "constant": true,
      "inputs": [],
      "name": "rwd",
      "outputs": [
        {
          "internalType": "contract RWD",
          "name": "",
          "type": "address"
        }
      ],
      "payable": false,
      "stateMutability": "view",
      "type": "function"
    },
    {
      "constant": true,
      "inputs": [
        {
          "internalType": "uint256",
          "name": "",
          "type": "uint256"
        }
      ],
      "name": "stackers",
      "outputs": [
        {
          "internalType": "address",
          "name": "",
          "type": "address"
        }
      ],
      "payable": false,
      "stateMutability": "view",
      "type": "function"
    },
    {
      "constant": true,
      "inputs": [
        {
          "internalType": "address",
          "name": "",
          "type": "address"
        }
      ],
      "name": "stackingBalance",
      "outputs": [
        {
          "internalType": "uint256",
          "name": "",
          "type": "uint256"
        }
      ],
      "payable": false,
      "stateMutability": "view",
      "type": "function"
    },
    {
      "constant": true,
      "inputs": [],
      "name": "tether",
      "outputs": [
        {
          "internalType": "contract Tether",
          "name": "",
          "type": "address"
        }
      ],
      "payable": false,
      "stateMutability": "view",
      "type": "function"
    },
    {
      "constant": false,
      "inputs": [
        {
          "internalType": "uint256",
          "name": "_amount",
          "type": "uint256"
        }
      ],
      "name": "depositTokens",
      "outputs": [],
      "payable": false,
      "stateMutability": "nonpayable",
      "type": "function"
    },
    {
      "constant": false,
      "inputs": [],
      "name": "issueTokens",
      "outputs": [],
      "payable": false,
      "stateMutability": "nonpayable",
      "type": "function"
    },
    {
      "constant": false,
      "inputs": [],
      "name": "unstackeTokens",
      "outputs": [],
      "payable": false,
      "stateMutability": "nonpayable",
      "type": "function"
    }
  ],
  "bytecode": "0x60806040526040518060400160405280600e81526020017f446563656e7472616c2042616e6b0000000000000000000000000000000000008152506000908051906020019061004f9291906101b0565b5034801561005c57600080fd5b506040516110793803806110798339818101604052606081101561007f57600080fd5b8101908080519060200190929190805190602001909291908051906020019092919050505082600360006101000a81548173ffffffffffffffffffffffffffffffffffffffff021916908373ffffffffffffffffffffffffffffffffffffffff16021790555081600260006101000a81548173ffffffffffffffffffffffffffffffffffffffff021916908373ffffffffffffffffffffffffffffffffffffffff16021790555080600460006101000a81548173ffffffffffffffffffffffffffffffffffffffff021916908373ffffffffffffffffffffffffffffffffffffffff16021790555033600160006101000a81548173ffffffffffffffffffffffffffffffffffffffff021916908373ffffffffffffffffffffffffffffffffffffffff160217905550505050610255565b828054600181600116156101000203166002900490600052602060002090601f016020900481019282601f106101f157805160ff191683800117855561021f565b8280016001018555821561021f579182015b8281111561021e578251825591602001919060010190610203565b5b50905061022c9190610230565b5090565b61025291905b8082111561024e576000816000905550600101610236565b5090565b90565b610e15806102646000396000f3fe608060405234801561001057600080fd5b50600436106100b45760003560e01c806360ab58521161007157806360ab585214610292578063692757011461029c57806378197289146102e65780638da5cb5b1461033e578063dd49756e14610388578063fb453e23146103b6576100b4565b806306fdde03146100b957806307e9417a1461013c5780631a8972d31461019857806332ac90cf146101e257806335f8687f1461023e5780635efc071a14610248575b600080fd5b6100c1610424565b6040518080602001828103825283818151815260200191508051906020019080838360005b838110156101015780820151818401526020810190506100e6565b50505050905090810190601f16801561012e5780820380516001836020036101000a031916815260200191505b509250505060405180910390f35b61017e6004803603602081101561015257600080fd5b81019080803573ffffffffffffffffffffffffffffffffffffffff1690602001909291905050506104c2565b604051808215151515815260200191505060405180910390f35b6101a06104e2565b604051808273ffffffffffffffffffffffffffffffffffffffff1673ffffffffffffffffffffffffffffffffffffffff16815260200191505060405180910390f35b610224600480360360208110156101f857600080fd5b81019080803573ffffffffffffffffffffffffffffffffffffffff169060200190929190505050610508565b604051808215151515815260200191505060405180910390f35b610246610528565b005b61025061074a565b604051808273ffffffffffffffffffffffffffffffffffffffff1673ffffffffffffffffffffffffffffffffffffffff16815260200191505060405180910390f35b61029a610770565b005b6102a46109d1565b604051808273ffffffffffffffffffffffffffffffffffffffff1673ffffffffffffffffffffffffffffffffffffffff16815260200191505060405180910390f35b610328600480360360208110156102fc57600080fd5b81019080803573ffffffffffffffffffffffffffffffffffffffff1690602001909291905050506109f7565b6040518082815260200191505060405180910390f35b610346610a0f565b604051808273ffffffffffffffffffffffffffffffffffffffff1673ffffffffffffffffffffffffffffffffffffffff16815260200191505060405180910390f35b6103b46004803603602081101561039e57600080fd5b8101908080359060200190929190505050610a35565b005b6103e2600480360360208110156103cc57600080fd5b8101908080359060200190929190505050610d7c565b604051808273ffffffffffffffffffffffffffffffffffffffff1673ffffffffffffffffffffffffffffffffffffffff16815260200191505060405180910390f35b60008054600181600116156101000203166002900480601f0160208091040260200160405190810160405280929190818152602001828054600181600116156101000203166002900480156104ba5780601f1061048f576101008083540402835291602001916104ba565b820191906000526020600020905b81548152906001019060200180831161049d57829003601f168201915b505050505081565b60086020528060005260406000206000915054906101000a900460ff1681565b600360009054906101000a900473ffffffffffffffffffffffffffffffffffffffff1681565b60076020528060005260406000206000915054906101000a900460ff1681565b6000600660003373ffffffffffffffffffffffffffffffffffffffff1673ffffffffffffffffffffffffffffffffffffffff168152602001908152602001600020549050600081116105c5576040517f08c379a0000000000000000000000000000000000000000000000000000000008152600401808060200182810382526028815260200180610db96028913960400191505060405180910390fd5b600260009054906101000a900473ffffffffffffffffffffffffffffffffffffffff1673ffffffffffffffffffffffffffffffffffffffff1663a9059cbb33836040518363ffffffff1660e01b8152600401808373ffffffffffffffffffffffffffffffffffffffff1673ffffffffffffffffffffffffffffffffffffffff16815260200182815260200192505050602060405180830381600087803b15801561066e57600080fd5b505af1158015610682573d6000803e3d6000fd5b505050506040513d602081101561069857600080fd5b8101908080519060200190929190505050506000600660003373ffffffffffffffffffffffffffffffffffffffff1673ffffffffffffffffffffffffffffffffffffffff168152602001908152602001600020819055506000600860003373ffffffffffffffffffffffffffffffffffffffff1673ffffffffffffffffffffffffffffffffffffffff16815260200190815260200160002060006101000a81548160ff02191690831515021790555050565b600260009054906101000a900473ffffffffffffffffffffffffffffffffffffffff1681565b600160009054906101000a900473ffffffffffffffffffffffffffffffffffffffff1673ffffffffffffffffffffffffffffffffffffffff163373ffffffffffffffffffffffffffffffffffffffff1614610833576040517f08c379a00000000000000000000000000000000000000000000000000000000081526004018080602001828103825260188152602001807f43616c6c6572206d75737420626520746865206f776e6572000000000000000081525060200191505060405180910390fd5b60008090505b6005805490508110156109ce5760006005828154811061085557fe5b9060005260206000200160009054906101000a900473ffffffffffffffffffffffffffffffffffffffff16905060006009600660008473ffffffffffffffffffffffffffffffffffffffff1673ffffffffffffffffffffffffffffffffffffffff16815260200190815260200160002054816108cd57fe5b04905060008111156109bf57600360009054906101000a900473ffffffffffffffffffffffffffffffffffffffff1673ffffffffffffffffffffffffffffffffffffffff1663a9059cbb83836040518363ffffffff1660e01b8152600401808373ffffffffffffffffffffffffffffffffffffffff1673ffffffffffffffffffffffffffffffffffffffff16815260200182815260200192505050602060405180830381600087803b15801561098257600080fd5b505af1158015610996573d6000803e3d6000fd5b505050506040513d60208110156109ac57600080fd5b8101908080519060200190929190505050505b50508080600101915050610839565b50565b600460009054906101000a900473ffffffffffffffffffffffffffffffffffffffff1681565b60066020528060005260406000206000915090505481565b600160009054906101000a900473ffffffffffffffffffffffffffffffffffffffff1681565b60008111610aab576040517f08c379a00000000000000000000000000000000000000000000000000000000081526004018080602001828103825260128152602001807f616d6f756e742063616e6e6f742062652030000000000000000000000000000081525060200191505060405180910390fd5b600260009054906101000a900473ffffffffffffffffffffffffffffffffffffffff1673ffffffffffffffffffffffffffffffffffffffff166323b872dd3330846040518463ffffffff1660e01b8152600401808473ffffffffffffffffffffffffffffffffffffffff1673ffffffffffffffffffffffffffffffffffffffff1681526020018373ffffffffffffffffffffffffffffffffffffffff1673ffffffffffffffffffffffffffffffffffffffff1681526020018281526020019350505050602060405180830381600087803b158015610b8857600080fd5b505af1158015610b9c573d6000803e3d6000fd5b505050506040513d6020811015610bb257600080fd5b81019080805190602001909291905050505080600660003373ffffffffffffffffffffffffffffffffffffffff1673ffffffffffffffffffffffffffffffffffffffff16815260200190815260200160002060008282540192505081905550600760003373ffffffffffffffffffffffffffffffffffffffff1673ffffffffffffffffffffffffffffffffffffffff16815260200190815260200160002060009054906101000a900460ff16610cc95760053390806001815401808255809150509060018203906000526020600020016000909192909190916101000a81548173ffffffffffffffffffffffffffffffffffffffff021916908373ffffffffffffffffffffffffffffffffffffffff160217905550505b6001600860003373ffffffffffffffffffffffffffffffffffffffff1673ffffffffffffffffffffffffffffffffffffffff16815260200190815260200160002060006101000a81548160ff0219169083151502179055506001600760003373ffffffffffffffffffffffffffffffffffffffff1673ffffffffffffffffffffffffffffffffffffffff16815260200190815260200160002060006101000a81548160ff02191690831515021790555050565b60058181548110610d8957fe5b906000526020600020016000915054906101000a900473ffffffffffffffffffffffffffffffffffffffff168156fe737461636b696e672062616c616e63652063616e2774206265206c657373207468616e207a65726fa265627a7a72315820f2227b563a868192c8917ee9b02f5f4f940c0cf7ff6f4064f450e31d26c28ed264736f6c63430005110032",
  "source": "pragma solidity ^0.5.0;\r\n\r\nimport \"./RWD.sol\";\r\nimport \"./Tether.sol\";\r\nimport \"./Fenda.sol\";\r\n\r\ncontract DecentralBank {\r\n    string public name = \"Decentral Bank\";\r\n    address public owner;\r\n    Tether public tether;\r\n    RWD public rwd;\r\n    Fenda public fenda;\r\n\r\n    address[] public stackers;\r\n\r\n    mapping(address => uint256) public stackingBalance;\r\n    mapping(address => bool) public hasStacked;\r\n    mapping(address => bool) public isStacking;\r\n\r\n    constructor(\r\n        RWD _rwd,\r\n        Tether _tether,\r\n        Fenda _fenda\r\n    ) public {\r\n        rwd = _rwd;\r\n        tether = _tether;\r\n        fenda = _fenda;\r\n        owner = msg.sender;\r\n    }\r\n\r\n    // Stacking function\r\n    function depositTokens(uint256 _amount) public {\r\n        // require(_amount <= tether.balanceOf(msg.sender), \"cannot stack more token than you have\");\r\n        require(_amount > 0, \"amount cannot be 0\");\r\n\r\n        // Transfer tether tokens to this contract addresss for stacking\r\n        tether.transferFrom(msg.sender, address(this), _amount);\r\n\r\n        // Update stacking balance\r\n        stackingBalance[msg.sender] += _amount;\r\n\r\n        if (!hasStacked[msg.sender]) {\r\n            stackers.push(msg.sender);\r\n        }\r\n\r\n        // Update stacking balance\r\n        isStacking[msg.sender] = true;\r\n        hasStacked[msg.sender] = true;\r\n    }\r\n\r\n    // issue rewards\r\n    function issueTokens() public {\r\n        require(msg.sender == owner, \"Caller must be the owner\");\r\n\r\n        for (uint256 i = 0; i < stackers.length; i++) {\r\n            address recipient = stackers[i];\r\n            uint256 balance = stackingBalance[recipient] / 9; // divisier par 9 to create percentage incentive for stackers\r\n            if (balance > 0) {\r\n                rwd.transfer(recipient, balance);\r\n            }\r\n        }\r\n    }\r\n\r\n    // unstack\r\n    function unstackeTokens() public {\r\n        uint256 balance = stackingBalance[msg.sender];\r\n        // require the amount to be greater than zero\r\n        require(balance > 0, \"stacking balance can't be less than zero\");\r\n\r\n        // transfer the tokens to the specified contract address from our bank\r\n        tether.transfer(msg.sender, balance);\r\n\r\n        // Update stacking balance\r\n        stackingBalance[msg.sender] = 0;\r\n\r\n        // Update stacking balance\r\n        isStacking[msg.sender] = false;\r\n    }\r\n}\r\n",
  "sourcePath": "C:\\Users\\Fenightix\\Desktop\\code\\WEB3\\Projets\\defi-staking-app-starter\\defi-staking-app-starter\\src\\contracts\\DecentralBank.sol",
  "compiler": {
    "name": "solc",
    "version": "0.5.17+commit.d19bba13.Emscripten.clang"
  },
  "schemaVersion": "3.4.7",
  "updatedAt": "2022-05-13T15:48:41.631Z",
  "devdoc": {
    "methods": {}
  },
  "userdoc": {
    "methods": {}
  }
}